{
  "_format": "hh-sol-artifact-1",
  "contractName": "CrossChainBridge",
  "sourceName": "contracts/cross-chain.sol",
  "abi": [
    {
      "inputs": [],
      "stateMutability": "nonpayable",
      "type": "constructor"
    },
    {
      "anonymous": false,
      "inputs": [
        {
          "indexed": false,
          "internalType": "uint256",
          "name": "chainId",
          "type": "uint256"
        },
        {
          "indexed": true,
          "internalType": "address",
          "name": "walletAddress",
          "type": "address"
        },
        {
          "indexed": true,
          "internalType": "address",
          "name": "tokenAddress",
          "type": "address"
        },
        {
          "indexed": false,
          "internalType": "uint256",
          "name": "amount",
          "type": "uint256"
        },
        {
          "indexed": false,
          "internalType": "uint256",
          "name": "fees",
          "type": "uint256"
        }
      ],
      "name": "CrossChainTransferIn",
      "type": "event"
    },
    {
      "anonymous": false,
      "inputs": [
        {
          "indexed": true,
          "internalType": "bytes32",
          "name": "originTxHash",
          "type": "bytes32"
        },
        {
          "indexed": true,
          "internalType": "uint256",
          "name": "originChainId",
          "type": "uint256"
        },
        {
          "indexed": true,
          "internalType": "address",
          "name": "walletAddress",
          "type": "address"
        },
        {
          "indexed": false,
          "internalType": "address",
          "name": "tokenAddress",
          "type": "address"
        },
        {
          "indexed": false,
          "internalType": "uint256",
          "name": "amount",
          "type": "uint256"
        }
      ],
      "name": "CrossChainTransferOut",
      "type": "event"
    },
    {
      "anonymous": false,
      "inputs": [
        {
          "indexed": true,
          "internalType": "address",
          "name": "depositer",
          "type": "address"
        },
        {
          "indexed": false,
          "internalType": "uint256",
          "name": "amount",
          "type": "uint256"
        }
      ],
      "name": "Deposit",
      "type": "event"
    },
    {
      "anonymous": false,
      "inputs": [
        {
          "indexed": true,
          "internalType": "address",
          "name": "caller",
          "type": "address"
        },
        {
          "indexed": false,
          "internalType": "uint256",
          "name": "amount",
          "type": "uint256"
        }
      ],
      "name": "Withdraw",
      "type": "event"
    },
    {
      "inputs": [
        {
          "internalType": "uint256",
          "name": "chainId",
          "type": "uint256"
        },
        {
          "internalType": "address",
          "name": "tokenAddress",
          "type": "address"
        },
        {
          "internalType": "uint256",
          "name": "amount",
          "type": "uint256"
        }
      ],
      "name": "crossChainTransferIn",
      "outputs": [],
      "stateMutability": "payable",
      "type": "function"
    },
    {
      "inputs": [
        {
          "internalType": "bytes32",
          "name": "originTxHash",
          "type": "bytes32"
        },
        {
          "internalType": "uint256",
          "name": "originChainId",
          "type": "uint256"
        },
        {
          "internalType": "address",
          "name": "tokenAddress",
          "type": "address"
        },
        {
          "internalType": "address",
          "name": "toWallet",
          "type": "address"
        },
        {
          "internalType": "uint256",
          "name": "amount",
          "type": "uint256"
        }
      ],
      "name": "crossChainTransferOut",
      "outputs": [],
      "stateMutability": "nonpayable",
      "type": "function"
    },
    {
      "inputs": [
        {
          "internalType": "address",
          "name": "tokenAddress",
          "type": "address"
        },
        {
          "internalType": "uint256",
          "name": "amount",
          "type": "uint256"
        }
      ],
      "name": "deposit",
      "outputs": [],
      "stateMutability": "payable",
      "type": "function"
    },
    {
      "inputs": [
        {
          "internalType": "address",
          "name": "",
          "type": "address"
        }
      ],
      "name": "deposits",
      "outputs": [
        {
          "internalType": "uint256",
          "name": "",
          "type": "uint256"
        }
      ],
      "stateMutability": "view",
      "type": "function"
    },
    {
      "inputs": [],
      "name": "feesPercentage",
      "outputs": [
        {
          "internalType": "uint256",
          "name": "",
          "type": "uint256"
        }
      ],
      "stateMutability": "view",
      "type": "function"
    },
    {
      "inputs": [],
      "name": "gasPrice",
      "outputs": [
        {
          "internalType": "uint256",
          "name": "",
          "type": "uint256"
        }
      ],
      "stateMutability": "view",
      "type": "function"
    },
    {
      "inputs": [
        {
          "internalType": "address",
          "name": "tokenAddress",
          "type": "address"
        },
        {
          "internalType": "uint256",
          "name": "amount",
          "type": "uint256"
        }
      ],
      "name": "getFees",
      "outputs": [
        {
          "internalType": "uint256",
          "name": "",
          "type": "uint256"
        }
      ],
      "stateMutability": "view",
      "type": "function"
    },
    {
      "inputs": [],
      "name": "owner",
      "outputs": [
        {
          "internalType": "address",
          "name": "",
          "type": "address"
        }
      ],
      "stateMutability": "view",
      "type": "function"
    },
    {
      "inputs": [],
      "name": "ratio",
      "outputs": [
        {
          "internalType": "uint256",
          "name": "",
          "type": "uint256"
        }
      ],
      "stateMutability": "view",
      "type": "function"
    },
    {
      "inputs": [
        {
          "internalType": "uint256",
          "name": "_feesPercentage",
          "type": "uint256"
        }
      ],
      "name": "setFeesPercentage",
      "outputs": [],
      "stateMutability": "nonpayable",
      "type": "function"
    },
    {
      "inputs": [
        {
          "internalType": "uint256",
          "name": "_gasPrice",
          "type": "uint256"
        }
      ],
      "name": "setGasPrice",
      "outputs": [],
      "stateMutability": "nonpayable",
      "type": "function"
    },
    {
      "inputs": [
        {
          "internalType": "uint256",
          "name": "_ratio",
          "type": "uint256"
        }
      ],
      "name": "setRatio",
      "outputs": [],
      "stateMutability": "nonpayable",
      "type": "function"
    },
    {
      "inputs": [
        {
          "internalType": "address",
          "name": "tokenAddress",
          "type": "address"
        },
        {
          "internalType": "uint256",
          "name": "amount",
          "type": "uint256"
        }
      ],
      "name": "withdraw",
      "outputs": [],
      "stateMutability": "nonpayable",
      "type": "function"
    }
  ],
  "bytecode": "0x608060405260326001556000600255600a60035534801561001f57600080fd5b50336000806101000a81548173ffffffffffffffffffffffffffffffffffffffff021916908373ffffffffffffffffffffffffffffffffffffffff16021790555061154d8061006f6000396000f3fe6080604052600436106100c25760003560e01c8063b2237ba31161007f578063efb36c1411610059578063efb36c1414610224578063f3fef3a314610261578063fc7e286d1461028a578063fe173b97146102c7576100c2565b8063b2237ba3146101a9578063bf1fe420146101d2578063c9cb1405146101fb576100c2565b8063213ecbba146100c75780632ca25150146100f257806347e7ef241461011b578063539a24821461013757806371ca337d146101535780638da5cb5b1461017e575b600080fd5b3480156100d357600080fd5b506100dc6102f2565b6040516100e99190610db1565b60405180910390f35b3480156100fe57600080fd5b5061011960048036038101906101149190610e91565b6102f8565b005b61013560048036038101906101309190610f0c565b61051d565b005b610151600480360381019061014c9190610f4c565b610763565b005b34801561015f57600080fd5b50610168610857565b6040516101759190610db1565b60405180910390f35b34801561018a57600080fd5b5061019361085d565b6040516101a09190610fae565b60405180910390f35b3480156101b557600080fd5b506101d060048036038101906101cb9190610fc9565b610881565b005b3480156101de57600080fd5b506101f960048036038101906101f49190610fc9565b610919565b005b34801561020757600080fd5b50610222600480360381019061021d9190610fc9565b6109b1565b005b34801561023057600080fd5b5061024b60048036038101906102469190610f0c565b610a8e565b6040516102589190610db1565b60405180910390f35b34801561026d57600080fd5b5061028860048036038101906102839190610f0c565b610b12565b005b34801561029657600080fd5b506102b160048036038101906102ac9190610ff6565b610d7a565b6040516102be9190610db1565b60405180910390f35b3480156102d357600080fd5b506102dc610d92565b6040516102e99190610db1565b60405180910390f35b60035481565b60008054906101000a900473ffffffffffffffffffffffffffffffffffffffff1673ffffffffffffffffffffffffffffffffffffffff163373ffffffffffffffffffffffffffffffffffffffff1614610386576040517f08c379a000000000000000000000000000000000000000000000000000000000815260040161037d90611080565b60405180910390fd5b600073ffffffffffffffffffffffffffffffffffffffff168373ffffffffffffffffffffffffffffffffffffffff1603610406578173ffffffffffffffffffffffffffffffffffffffff166108fc829081150290604051600060405180830381858888f19350505050158015610400573d6000803e3d6000fd5b506104c4565b8273ffffffffffffffffffffffffffffffffffffffff1663a9059cbb83836040518363ffffffff1660e01b81526004016104419291906110a0565b6020604051808303816000875af1158015610460573d6000803e3d6000fd5b505050506040513d601f19601f820116820180604052508101906104849190611101565b6104c3576040517f08c379a00000000000000000000000000000000000000000000000000000000081526004016104ba9061117a565b60405180910390fd5b5b8173ffffffffffffffffffffffffffffffffffffffff1684867f623420b1c4ec1f399ad53b6c0f1de1408c4b4250995b050b905cd9d591a52d0e868560405161050e9291906110a0565b60405180910390a45050505050565b80600460003373ffffffffffffffffffffffffffffffffffffffff1673ffffffffffffffffffffffffffffffffffffffff168152602001908152602001600020600082825461056c91906111c9565b92505081905550600073ffffffffffffffffffffffffffffffffffffffff168273ffffffffffffffffffffffffffffffffffffffff160361065157803410156105ea576040517f08c379a00000000000000000000000000000000000000000000000000000000081526004016105e19061126f565b60405180910390fd5b600081346105f8919061128f565b9050600081111561064b573373ffffffffffffffffffffffffffffffffffffffff166108fc829081150290604051600060405180830381858888f19350505050158015610649573d6000803e3d6000fd5b505b50610711565b8173ffffffffffffffffffffffffffffffffffffffff166323b872dd3330846040518463ffffffff1660e01b815260040161068e939291906112c3565b6020604051808303816000875af11580156106ad573d6000803e3d6000fd5b505050506040513d601f19601f820116820180604052508101906106d19190611101565b610710576040517f08c379a00000000000000000000000000000000000000000000000000000000081526004016107079061117a565b60405180910390fd5b5b3373ffffffffffffffffffffffffffffffffffffffff167fe1fffcc4923d04b559f4d29a8bfc6cda04eb5b0d3c460751c2402c5c5cc9109c826040516107579190610db1565b60405180910390a25050565b600061076f8383610a8e565b9050600073ffffffffffffffffffffffffffffffffffffffff168373ffffffffffffffffffffffffffffffffffffffff16036107e8578134146107e7576040517f08c379a00000000000000000000000000000000000000000000000000000000081526004016107de90611346565b60405180910390fd5b5b8273ffffffffffffffffffffffffffffffffffffffff163373ffffffffffffffffffffffffffffffffffffffff167fd7eeb7e4a94605af470f39b5fe54b05f6e4c9458d1865299e2272172bd643a0e86858560405161084993929190611366565b60405180910390a350505050565b60015481565b60008054906101000a900473ffffffffffffffffffffffffffffffffffffffff1681565b60008054906101000a900473ffffffffffffffffffffffffffffffffffffffff1673ffffffffffffffffffffffffffffffffffffffff163373ffffffffffffffffffffffffffffffffffffffff161461090f576040517f08c379a000000000000000000000000000000000000000000000000000000000815260040161090690611080565b60405180910390fd5b8060018190555050565b60008054906101000a900473ffffffffffffffffffffffffffffffffffffffff1673ffffffffffffffffffffffffffffffffffffffff163373ffffffffffffffffffffffffffffffffffffffff16146109a7576040517f08c379a000000000000000000000000000000000000000000000000000000000815260040161099e90611080565b60405180910390fd5b8060028190555050565b60008054906101000a900473ffffffffffffffffffffffffffffffffffffffff1673ffffffffffffffffffffffffffffffffffffffff163373ffffffffffffffffffffffffffffffffffffffff1614610a3f576040517f08c379a0000000000000000000000000000000000000000000000000000000008152600401610a3690611080565b60405180910390fd5b612710811115610a84576040517f08c379a0000000000000000000000000000000000000000000000000000000008152600401610a7b906113e9565b60405180910390fd5b8060038190555050565b600080600073ffffffffffffffffffffffffffffffffffffffff168473ffffffffffffffffffffffffffffffffffffffff1603610acf576152089050610ad6565b6201388090505b60025481610ae49190611409565b61271060035485610af59190611409565b610aff919061147a565b610b0991906111c9565b91505092915050565b80600460003373ffffffffffffffffffffffffffffffffffffffff1673ffffffffffffffffffffffffffffffffffffffff168152602001908152602001600020541015610b94576040517f08c379a0000000000000000000000000000000000000000000000000000000008152600401610b8b906114f7565b60405180910390fd5b80600460003373ffffffffffffffffffffffffffffffffffffffff1673ffffffffffffffffffffffffffffffffffffffff1681526020019081526020016000206000828254610be3919061128f565b92505081905550600073ffffffffffffffffffffffffffffffffffffffff168273ffffffffffffffffffffffffffffffffffffffff1603610c6a573373ffffffffffffffffffffffffffffffffffffffff166108fc829081150290604051600060405180830381858888f19350505050158015610c64573d6000803e3d6000fd5b50610d28565b8173ffffffffffffffffffffffffffffffffffffffff1663a9059cbb33836040518363ffffffff1660e01b8152600401610ca59291906110a0565b6020604051808303816000875af1158015610cc4573d6000803e3d6000fd5b505050506040513d601f19601f82011682018060405250810190610ce89190611101565b610d27576040517f08c379a0000000000000000000000000000000000000000000000000000000008152600401610d1e9061117a565b60405180910390fd5b5b3373ffffffffffffffffffffffffffffffffffffffff167f884edad9ce6fa2440d8a54cc123490eb96d2768479d49ff9c7366125a942436482604051610d6e9190610db1565b60405180910390a25050565b60046020528060005260406000206000915090505481565b60025481565b6000819050919050565b610dab81610d98565b82525050565b6000602082019050610dc66000830184610da2565b92915050565b600080fd5b6000819050919050565b610de481610dd1565b8114610def57600080fd5b50565b600081359050610e0181610ddb565b92915050565b610e1081610d98565b8114610e1b57600080fd5b50565b600081359050610e2d81610e07565b92915050565b600073ffffffffffffffffffffffffffffffffffffffff82169050919050565b6000610e5e82610e33565b9050919050565b610e6e81610e53565b8114610e7957600080fd5b50565b600081359050610e8b81610e65565b92915050565b600080600080600060a08688031215610ead57610eac610dcc565b5b6000610ebb88828901610df2565b9550506020610ecc88828901610e1e565b9450506040610edd88828901610e7c565b9350506060610eee88828901610e7c565b9250506080610eff88828901610e1e565b9150509295509295909350565b60008060408385031215610f2357610f22610dcc565b5b6000610f3185828601610e7c565b9250506020610f4285828601610e1e565b9150509250929050565b600080600060608486031215610f6557610f64610dcc565b5b6000610f7386828701610e1e565b9350506020610f8486828701610e7c565b9250506040610f9586828701610e1e565b9150509250925092565b610fa881610e53565b82525050565b6000602082019050610fc36000830184610f9f565b92915050565b600060208284031215610fdf57610fde610dcc565b5b6000610fed84828501610e1e565b91505092915050565b60006020828403121561100c5761100b610dcc565b5b600061101a84828501610e7c565b91505092915050565b600082825260208201905092915050565b7f4e6f742074686520636f6e7472616374206f776e657200000000000000000000600082015250565b600061106a601683611023565b915061107582611034565b602082019050919050565b600060208201905081810360008301526110998161105d565b9050919050565b60006040820190506110b56000830185610f9f565b6110c26020830184610da2565b9392505050565b60008115159050919050565b6110de816110c9565b81146110e957600080fd5b50565b6000815190506110fb816110d5565b92915050565b60006020828403121561111757611116610dcc565b5b6000611125848285016110ec565b91505092915050565b7f5472616e73666572206661696c65640000000000000000000000000000000000600082015250565b6000611164600f83611023565b915061116f8261112e565b602082019050919050565b6000602082019050818103600083015261119381611157565b9050919050565b7f4e487b7100000000000000000000000000000000000000000000000000000000600052601160045260246000fd5b60006111d482610d98565b91506111df83610d98565b92508282019050808211156111f7576111f661119a565b5b92915050565b7f53656e742076616c7565206973206c657373207468616e20737065636966696560008201527f6420616d6f756e74000000000000000000000000000000000000000000000000602082015250565b6000611259602883611023565b9150611264826111fd565b604082019050919050565b600060208201905081810360008301526112888161124c565b9050919050565b600061129a82610d98565b91506112a583610d98565b92508282039050818111156112bd576112bc61119a565b5b92915050565b60006060820190506112d86000830186610f9f565b6112e56020830185610f9f565b6112f26040830184610da2565b949350505050565b7f53656e742076616c7565206d69736d6174636800000000000000000000000000600082015250565b6000611330601383611023565b915061133b826112fa565b602082019050919050565b6000602082019050818103600083015261135f81611323565b9050919050565b600060608201905061137b6000830186610da2565b6113886020830185610da2565b6113956040830184610da2565b949350505050565b7f496e76616c69642070657263656e746167650000000000000000000000000000600082015250565b60006113d3601283611023565b91506113de8261139d565b602082019050919050565b60006020820190508181036000830152611402816113c6565b9050919050565b600061141482610d98565b915061141f83610d98565b925082820261142d81610d98565b915082820484148315176114445761144361119a565b5b5092915050565b7f4e487b7100000000000000000000000000000000000000000000000000000000600052601260045260246000fd5b600061148582610d98565b915061149083610d98565b9250826114a05761149f61144b565b5b828204905092915050565b7f496e73756666696369656e74206465706f73697465642066756e647300000000600082015250565b60006114e1601c83611023565b91506114ec826114ab565b602082019050919050565b60006020820190508181036000830152611510816114d4565b905091905056fea26469706673582212204abcfc86a3c1fc93b17149e0deab5e00a96af8cb66d18e6e1b794756d0c31f1b64736f6c63430008110033",
  "linkReferences": {},
  "deployedLinkReferences": {}
}