{
  "_format": "hh-sol-artifact-1",
  "contractName": "CrossChainBridge",
  "sourceName": "contracts/cross-chain.sol",
  "abi": [
    {
      "inputs": [],
      "stateMutability": "nonpayable",
      "type": "constructor"
    },
    {
      "anonymous": false,
      "inputs": [
        {
          "indexed": false,
          "internalType": "uint256",
          "name": "chainId",
          "type": "uint256"
        },
        {
          "indexed": true,
          "internalType": "address",
          "name": "walletAddress",
          "type": "address"
        },
        {
          "indexed": true,
          "internalType": "address",
          "name": "tokenAddress",
          "type": "address"
        },
        {
          "indexed": false,
          "internalType": "uint256",
          "name": "amount",
          "type": "uint256"
        },
        {
          "indexed": false,
          "internalType": "uint256",
          "name": "fees",
          "type": "uint256"
        }
      ],
      "name": "CrossChainTransferIn",
      "type": "event"
    },
    {
      "anonymous": false,
      "inputs": [
        {
          "indexed": true,
          "internalType": "bytes32",
          "name": "originTxHash",
          "type": "bytes32"
        },
        {
          "indexed": true,
          "internalType": "uint256",
          "name": "originChainId",
          "type": "uint256"
        },
        {
          "indexed": true,
          "internalType": "address",
          "name": "walletAddress",
          "type": "address"
        },
        {
          "indexed": false,
          "internalType": "address",
          "name": "tokenAddress",
          "type": "address"
        },
        {
          "indexed": false,
          "internalType": "uint256",
          "name": "amount",
          "type": "uint256"
        }
      ],
      "name": "CrossChainTransferOut",
      "type": "event"
    },
    {
      "anonymous": false,
      "inputs": [
        {
          "indexed": true,
          "internalType": "address",
          "name": "depositer",
          "type": "address"
        },
        {
          "indexed": false,
          "internalType": "uint256",
          "name": "amount",
          "type": "uint256"
        }
      ],
      "name": "Deposit",
      "type": "event"
    },
    {
      "anonymous": false,
      "inputs": [
        {
          "indexed": true,
          "internalType": "address",
          "name": "caller",
          "type": "address"
        },
        {
          "indexed": false,
          "internalType": "uint256",
          "name": "amount",
          "type": "uint256"
        }
      ],
      "name": "Withdraw",
      "type": "event"
    },
    {
      "inputs": [
        {
          "internalType": "uint256",
          "name": "chainId",
          "type": "uint256"
        },
        {
          "internalType": "address",
          "name": "tokenAddress",
          "type": "address"
        },
        {
          "internalType": "uint256",
          "name": "amount",
          "type": "uint256"
        }
      ],
      "name": "crossChainTransferIn",
      "outputs": [],
      "stateMutability": "payable",
      "type": "function"
    },
    {
      "inputs": [
        {
          "internalType": "bytes32",
          "name": "originTxHash",
          "type": "bytes32"
        },
        {
          "internalType": "uint256",
          "name": "originChainId",
          "type": "uint256"
        },
        {
          "internalType": "address",
          "name": "tokenAddress",
          "type": "address"
        },
        {
          "internalType": "address",
          "name": "toWallet",
          "type": "address"
        },
        {
          "internalType": "uint256",
          "name": "amount",
          "type": "uint256"
        }
      ],
      "name": "crossChainTransferOut",
      "outputs": [],
      "stateMutability": "nonpayable",
      "type": "function"
    },
    {
      "inputs": [
        {
          "internalType": "address",
          "name": "tokenAddress",
          "type": "address"
        },
        {
          "internalType": "uint256",
          "name": "amount",
          "type": "uint256"
        }
      ],
      "name": "deposit",
      "outputs": [],
      "stateMutability": "payable",
      "type": "function"
    },
    {
      "inputs": [
        {
          "internalType": "address",
          "name": "",
          "type": "address"
        }
      ],
      "name": "deposits",
      "outputs": [
        {
          "internalType": "uint256",
          "name": "",
          "type": "uint256"
        }
      ],
      "stateMutability": "view",
      "type": "function"
    },
    {
      "inputs": [],
      "name": "feesPercentage",
      "outputs": [
        {
          "internalType": "uint256",
          "name": "",
          "type": "uint256"
        }
      ],
      "stateMutability": "view",
      "type": "function"
    },
    {
      "inputs": [],
      "name": "gasPrice",
      "outputs": [
        {
          "internalType": "uint256",
          "name": "",
          "type": "uint256"
        }
      ],
      "stateMutability": "view",
      "type": "function"
    },
    {
      "inputs": [
        {
          "internalType": "address",
          "name": "tokenAddress",
          "type": "address"
        },
        {
          "internalType": "uint256",
          "name": "amount",
          "type": "uint256"
        }
      ],
      "name": "getFees",
      "outputs": [
        {
          "internalType": "uint256",
          "name": "",
          "type": "uint256"
        }
      ],
      "stateMutability": "view",
      "type": "function"
    },
    {
      "inputs": [],
      "name": "messenger",
      "outputs": [
        {
          "internalType": "address",
          "name": "",
          "type": "address"
        }
      ],
      "stateMutability": "view",
      "type": "function"
    },
    {
      "inputs": [],
      "name": "owner",
      "outputs": [
        {
          "internalType": "address",
          "name": "",
          "type": "address"
        }
      ],
      "stateMutability": "view",
      "type": "function"
    },
    {
      "inputs": [],
      "name": "ratio",
      "outputs": [
        {
          "internalType": "uint256",
          "name": "",
          "type": "uint256"
        }
      ],
      "stateMutability": "view",
      "type": "function"
    },
    {
      "inputs": [
        {
          "internalType": "uint256",
          "name": "_feesPercentage",
          "type": "uint256"
        }
      ],
      "name": "setFeesPercentage",
      "outputs": [],
      "stateMutability": "nonpayable",
      "type": "function"
    },
    {
      "inputs": [
        {
          "internalType": "uint256",
          "name": "_gasPrice",
          "type": "uint256"
        }
      ],
      "name": "setGasPrice",
      "outputs": [],
      "stateMutability": "nonpayable",
      "type": "function"
    },
    {
      "inputs": [
        {
          "internalType": "address",
          "name": "_messenger",
          "type": "address"
        }
      ],
      "name": "setMessenger",
      "outputs": [],
      "stateMutability": "nonpayable",
      "type": "function"
    },
    {
      "inputs": [
        {
          "internalType": "uint256",
          "name": "_ratio",
          "type": "uint256"
        }
      ],
      "name": "setRatio",
      "outputs": [],
      "stateMutability": "nonpayable",
      "type": "function"
    },
    {
      "inputs": [
        {
          "internalType": "address",
          "name": "tokenAddress",
          "type": "address"
        },
        {
          "internalType": "uint256",
          "name": "amount",
          "type": "uint256"
        }
      ],
      "name": "withdraw",
      "outputs": [],
      "stateMutability": "nonpayable",
      "type": "function"
    }
  ],
  "bytecode": "0x608060405260326002556000600355600a60045534801561001f57600080fd5b50336000806101000a81548173ffffffffffffffffffffffffffffffffffffffff021916908373ffffffffffffffffffffffffffffffffffffffff1602179055506118338061006f6000396000f3fe6080604052600436106100e85760003560e01c80638da5cb5b1161008a578063efb36c1411610059578063efb36c141461029e578063f3fef3a3146102db578063fc7e286d14610304578063fe173b9714610341576100e8565b80638da5cb5b146101f8578063b2237ba314610223578063bf1fe4201461024c578063c9cb140514610275576100e8565b806347e7ef24116100c657806347e7ef241461016c578063539a24821461018857806366285967146101a457806371ca337d146101cd576100e8565b8063213ecbba146100ed5780632ca25150146101185780633cb747bf14610141575b600080fd5b3480156100f957600080fd5b5061010261036c565b60405161010f919061102b565b60405180910390f35b34801561012457600080fd5b5061013f600480360381019061013a919061110b565b610372565b005b34801561014d57600080fd5b506101566105ef565b6040516101639190611195565b60405180910390f35b610186600480360381019061018191906111b0565b610615565b005b6101a2600480360381019061019d91906111f0565b61085b565b005b3480156101b057600080fd5b506101cb60048036038101906101c69190611243565b61094f565b005b3480156101d957600080fd5b506101e2610a21565b6040516101ef919061102b565b60405180910390f35b34801561020457600080fd5b5061020d610a27565b60405161021a9190611195565b60405180910390f35b34801561022f57600080fd5b5061024a60048036038101906102459190611270565b610a4b565b005b34801561025857600080fd5b50610273600480360381019061026e9190611270565b610b3b565b005b34801561028157600080fd5b5061029c60048036038101906102979190611270565b610c2b565b005b3480156102aa57600080fd5b506102c560048036038101906102c091906111b0565b610d08565b6040516102d2919061102b565b60405180910390f35b3480156102e757600080fd5b5061030260048036038101906102fd91906111b0565b610d8c565b005b34801561031057600080fd5b5061032b60048036038101906103269190611243565b610ff4565b604051610338919061102b565b60405180910390f35b34801561034d57600080fd5b5061035661100c565b604051610363919061102b565b60405180910390f35b60045481565b600160009054906101000a900473ffffffffffffffffffffffffffffffffffffffff1673ffffffffffffffffffffffffffffffffffffffff163373ffffffffffffffffffffffffffffffffffffffff161480610419575060008054906101000a900473ffffffffffffffffffffffffffffffffffffffff1673ffffffffffffffffffffffffffffffffffffffff163373ffffffffffffffffffffffffffffffffffffffff16145b610458576040517f08c379a000000000000000000000000000000000000000000000000000000000815260040161044f906112fa565b60405180910390fd5b600073ffffffffffffffffffffffffffffffffffffffff168373ffffffffffffffffffffffffffffffffffffffff16036104d8578173ffffffffffffffffffffffffffffffffffffffff166108fc829081150290604051600060405180830381858888f193505050501580156104d2573d6000803e3d6000fd5b50610596565b8273ffffffffffffffffffffffffffffffffffffffff1663a9059cbb83836040518363ffffffff1660e01b815260040161051392919061131a565b6020604051808303816000875af1158015610532573d6000803e3d6000fd5b505050506040513d601f19601f82011682018060405250810190610556919061137b565b610595576040517f08c379a000000000000000000000000000000000000000000000000000000000815260040161058c906113f4565b60405180910390fd5b5b8173ffffffffffffffffffffffffffffffffffffffff1684867f623420b1c4ec1f399ad53b6c0f1de1408c4b4250995b050b905cd9d591a52d0e86856040516105e092919061131a565b60405180910390a45050505050565b600160009054906101000a900473ffffffffffffffffffffffffffffffffffffffff1681565b80600560003373ffffffffffffffffffffffffffffffffffffffff1673ffffffffffffffffffffffffffffffffffffffff16815260200190815260200160002060008282546106649190611443565b92505081905550600073ffffffffffffffffffffffffffffffffffffffff168273ffffffffffffffffffffffffffffffffffffffff160361074957803410156106e2576040517f08c379a00000000000000000000000000000000000000000000000000000000081526004016106d9906114e9565b60405180910390fd5b600081346106f09190611509565b90506000811115610743573373ffffffffffffffffffffffffffffffffffffffff166108fc829081150290604051600060405180830381858888f19350505050158015610741573d6000803e3d6000fd5b505b50610809565b8173ffffffffffffffffffffffffffffffffffffffff166323b872dd3330846040518463ffffffff1660e01b81526004016107869392919061153d565b6020604051808303816000875af11580156107a5573d6000803e3d6000fd5b505050506040513d601f19601f820116820180604052508101906107c9919061137b565b610808576040517f08c379a00000000000000000000000000000000000000000000000000000000081526004016107ff906113f4565b60405180910390fd5b5b3373ffffffffffffffffffffffffffffffffffffffff167fe1fffcc4923d04b559f4d29a8bfc6cda04eb5b0d3c460751c2402c5c5cc9109c8260405161084f919061102b565b60405180910390a25050565b60006108678383610d08565b9050600073ffffffffffffffffffffffffffffffffffffffff168373ffffffffffffffffffffffffffffffffffffffff16036108e0578134146108df576040517f08c379a00000000000000000000000000000000000000000000000000000000081526004016108d6906115c0565b60405180910390fd5b5b8273ffffffffffffffffffffffffffffffffffffffff163373ffffffffffffffffffffffffffffffffffffffff167fd7eeb7e4a94605af470f39b5fe54b05f6e4c9458d1865299e2272172bd643a0e868585604051610941939291906115e0565b60405180910390a350505050565b60008054906101000a900473ffffffffffffffffffffffffffffffffffffffff1673ffffffffffffffffffffffffffffffffffffffff163373ffffffffffffffffffffffffffffffffffffffff16146109dd576040517f08c379a00000000000000000000000000000000000000000000000000000000081526004016109d490611663565b60405180910390fd5b80600160006101000a81548173ffffffffffffffffffffffffffffffffffffffff021916908373ffffffffffffffffffffffffffffffffffffffff16021790555050565b60025481565b60008054906101000a900473ffffffffffffffffffffffffffffffffffffffff1681565b600160009054906101000a900473ffffffffffffffffffffffffffffffffffffffff1673ffffffffffffffffffffffffffffffffffffffff163373ffffffffffffffffffffffffffffffffffffffff161480610af2575060008054906101000a900473ffffffffffffffffffffffffffffffffffffffff1673ffffffffffffffffffffffffffffffffffffffff163373ffffffffffffffffffffffffffffffffffffffff16145b610b31576040517f08c379a0000000000000000000000000000000000000000000000000000000008152600401610b28906112fa565b60405180910390fd5b8060028190555050565b600160009054906101000a900473ffffffffffffffffffffffffffffffffffffffff1673ffffffffffffffffffffffffffffffffffffffff163373ffffffffffffffffffffffffffffffffffffffff161480610be2575060008054906101000a900473ffffffffffffffffffffffffffffffffffffffff1673ffffffffffffffffffffffffffffffffffffffff163373ffffffffffffffffffffffffffffffffffffffff16145b610c21576040517f08c379a0000000000000000000000000000000000000000000000000000000008152600401610c18906112fa565b60405180910390fd5b8060038190555050565b60008054906101000a900473ffffffffffffffffffffffffffffffffffffffff1673ffffffffffffffffffffffffffffffffffffffff163373ffffffffffffffffffffffffffffffffffffffff1614610cb9576040517f08c379a0000000000000000000000000000000000000000000000000000000008152600401610cb090611663565b60405180910390fd5b612710811115610cfe576040517f08c379a0000000000000000000000000000000000000000000000000000000008152600401610cf5906116cf565b60405180910390fd5b8060048190555050565b600080600073ffffffffffffffffffffffffffffffffffffffff168473ffffffffffffffffffffffffffffffffffffffff1603610d49576152089050610d50565b6201388090505b60035481610d5e91906116ef565b61271060045485610d6f91906116ef565b610d799190611760565b610d839190611443565b91505092915050565b80600560003373ffffffffffffffffffffffffffffffffffffffff1673ffffffffffffffffffffffffffffffffffffffff168152602001908152602001600020541015610e0e576040517f08c379a0000000000000000000000000000000000000000000000000000000008152600401610e05906117dd565b60405180910390fd5b80600560003373ffffffffffffffffffffffffffffffffffffffff1673ffffffffffffffffffffffffffffffffffffffff1681526020019081526020016000206000828254610e5d9190611509565b92505081905550600073ffffffffffffffffffffffffffffffffffffffff168273ffffffffffffffffffffffffffffffffffffffff1603610ee4573373ffffffffffffffffffffffffffffffffffffffff166108fc829081150290604051600060405180830381858888f19350505050158015610ede573d6000803e3d6000fd5b50610fa2565b8173ffffffffffffffffffffffffffffffffffffffff1663a9059cbb33836040518363ffffffff1660e01b8152600401610f1f92919061131a565b6020604051808303816000875af1158015610f3e573d6000803e3d6000fd5b505050506040513d601f19601f82011682018060405250810190610f62919061137b565b610fa1576040517f08c379a0000000000000000000000000000000000000000000000000000000008152600401610f98906113f4565b60405180910390fd5b5b3373ffffffffffffffffffffffffffffffffffffffff167f884edad9ce6fa2440d8a54cc123490eb96d2768479d49ff9c7366125a942436482604051610fe8919061102b565b60405180910390a25050565b60056020528060005260406000206000915090505481565b60035481565b6000819050919050565b61102581611012565b82525050565b6000602082019050611040600083018461101c565b92915050565b600080fd5b6000819050919050565b61105e8161104b565b811461106957600080fd5b50565b60008135905061107b81611055565b92915050565b61108a81611012565b811461109557600080fd5b50565b6000813590506110a781611081565b92915050565b600073ffffffffffffffffffffffffffffffffffffffff82169050919050565b60006110d8826110ad565b9050919050565b6110e8816110cd565b81146110f357600080fd5b50565b600081359050611105816110df565b92915050565b600080600080600060a0868803121561112757611126611046565b5b60006111358882890161106c565b955050602061114688828901611098565b9450506040611157888289016110f6565b9350506060611168888289016110f6565b925050608061117988828901611098565b9150509295509295909350565b61118f816110cd565b82525050565b60006020820190506111aa6000830184611186565b92915050565b600080604083850312156111c7576111c6611046565b5b60006111d5858286016110f6565b92505060206111e685828601611098565b9150509250929050565b60008060006060848603121561120957611208611046565b5b600061121786828701611098565b9350506020611228868287016110f6565b925050604061123986828701611098565b9150509250925092565b60006020828403121561125957611258611046565b5b6000611267848285016110f6565b91505092915050565b60006020828403121561128657611285611046565b5b600061129484828501611098565b91505092915050565b600082825260208201905092915050565b7f4e6f7420746865206d657373656e676572206f72206f776e6572000000000000600082015250565b60006112e4601a8361129d565b91506112ef826112ae565b602082019050919050565b60006020820190508181036000830152611313816112d7565b9050919050565b600060408201905061132f6000830185611186565b61133c602083018461101c565b9392505050565b60008115159050919050565b61135881611343565b811461136357600080fd5b50565b6000815190506113758161134f565b92915050565b60006020828403121561139157611390611046565b5b600061139f84828501611366565b91505092915050565b7f5472616e73666572206661696c65640000000000000000000000000000000000600082015250565b60006113de600f8361129d565b91506113e9826113a8565b602082019050919050565b6000602082019050818103600083015261140d816113d1565b9050919050565b7f4e487b7100000000000000000000000000000000000000000000000000000000600052601160045260246000fd5b600061144e82611012565b915061145983611012565b925082820190508082111561147157611470611414565b5b92915050565b7f53656e742076616c7565206973206c657373207468616e20737065636966696560008201527f6420616d6f756e74000000000000000000000000000000000000000000000000602082015250565b60006114d360288361129d565b91506114de82611477565b604082019050919050565b60006020820190508181036000830152611502816114c6565b9050919050565b600061151482611012565b915061151f83611012565b925082820390508181111561153757611536611414565b5b92915050565b60006060820190506115526000830186611186565b61155f6020830185611186565b61156c604083018461101c565b949350505050565b7f53656e742076616c7565206d69736d6174636800000000000000000000000000600082015250565b60006115aa60138361129d565b91506115b582611574565b602082019050919050565b600060208201905081810360008301526115d98161159d565b9050919050565b60006060820190506115f5600083018661101c565b611602602083018561101c565b61160f604083018461101c565b949350505050565b7f4e6f742074686520636f6e7472616374206f776e657200000000000000000000600082015250565b600061164d60168361129d565b915061165882611617565b602082019050919050565b6000602082019050818103600083015261167c81611640565b9050919050565b7f496e76616c69642070657263656e746167650000000000000000000000000000600082015250565b60006116b960128361129d565b91506116c482611683565b602082019050919050565b600060208201905081810360008301526116e8816116ac565b9050919050565b60006116fa82611012565b915061170583611012565b925082820261171381611012565b9150828204841483151761172a57611729611414565b5b5092915050565b7f4e487b7100000000000000000000000000000000000000000000000000000000600052601260045260246000fd5b600061176b82611012565b915061177683611012565b92508261178657611785611731565b5b828204905092915050565b7f496e73756666696369656e74206465706f73697465642066756e647300000000600082015250565b60006117c7601c8361129d565b91506117d282611791565b602082019050919050565b600060208201905081810360008301526117f6816117ba565b905091905056fea2646970667358221220870f23ad471540709f39847ef68f73659d0f2c286ad032b3ca1fba754dbcf59764736f6c63430008110033",
  "linkReferences": {},
  "deployedLinkReferences": {}
}